:020000040800F2
:1000000070290020BD8900084D4900084F490008AB
:1000100053490008574900085B49000800000000E8
:100020000000000000000000000000005F49000820
:1000300061490008000000006349000865490008A4
:10004000D7890008D7890008D7890008D789000810
:10005000D7890008D7890008D7890008D789000800
:10006000D7890008D7890008D7890008D7890008F0
:10007000D7890008D7890008D7890008D7890008E0
:10008000D7890008D7890008D7890008D7890008D0
:10009000D7890008D7890008D7890008D7890008C0
:1000A000D7890008D7890008D7890008D7890008B0
:1000B000B3400008FD400008D7890008D789000830
:1000C000D7890008D7890008D7890008D789000890
:1000D000D789000831890008D7890008D789000826
:1000E000D7890008D7890008D7890008D789000870
:1000F000D7890008D7890008D7890008D789000860
:10010000D7890008D7890008D7890008D78900084F
:10011000D7890008D7890008D7890008D78900083F
:10012000D7890008D7890008D7890008D78900082F
:10013000DFF80CD00BF04AFA00480047E33B000818
:10014000702900202DE9F047DFF8F883DFF8F893F5
:10015000FE4800680AF0CEFE064642464B460AF0CC
:10016000DAFD0446FA480CC820460AF02DFDF84A8C
:1001700003C2F84800680AF0BDFE06460022F64BAE
:100180000AF03BFE0446F2480CC820460AF01CFF69
:1001900008D2EE4800684042EC4908604FF47A709B
:1001A00008F03FFB00221346E94903C90AF00CFF9F
:1001B00008D8E64800684042E44908600020E44A64
:1001C00010605060E24903C9BDE8F0872DE9F04FA7
:1001D0008BB004460D4600BF0021E048CDE9041075
:1001E000DF48CDE902100091019120462946DDE962
:1001F00004230AF090FDCDE90801DA480CC8204636
:1002000029460AF0E1FCD74A03C2D7480CC8204669
:1002100029460AF07AFD0646DDE900230AF07BFD57
:10022000CDE90601D04830C0CE480CC8DDE9020156
:100230000AF071FD0646DDE908230AF0C5FC804698
:10024000DDE906230AF0C0FC82468B46504659463B
:100250000BB0BDE8F08F2DE9F05F06460F46C348AE
:10026000C349096800EBC100C0C0C1480068401C18
:10027000032190FBF1F201FB1200BD490860BB486D
:100280000146D0E90283D1E900A1424650460AF076
:100290009BFE0AD8B5490846D1E904834246D0E915
:1002A00000A150460AF0A8FE15D9B0480146D0E991
:1002B0000283D1E900A1424650460AF09DFE0DD8C6
:1002C000AA480146D0E90483D1E900A1424650463C
:1002D0000AF07AFE02D8A54830C830E0A348D0E939
:1002E00000834246D0E902A150460AF06DFE0AD8CA
:1002F0009E490846D1E904834246D0E902A150460E
:100300000AF07AFE14D999490846D1E90083424699
:10031000D0E902A150460AF06FFE0DD89348D0E90B
:1003200004834246D0E902A150460AF04DFE03D8AC
:100330008E48D0E9024502E08C48D0E904452046C9
:100340002946BDE8F09F2DE9F05F06460F46894833
:100350008949096800EBC100C0C087480068401C9B
:10036000032190FBF1F201FB1200834908608148F0
:100370000146D0E90283D1E900A1424650460AF085
:1003800023FE0AD87B490846D1E904834246D0E9D6
:1003900000A150460AF030FE15D976480146D0E952
:1003A0000283D1E900A1424650460AF025FE0DD84D
:1003B00070480146D0E90483D1E900A14246504685
:1003C0000AF002FE02D86B4830C830E06948D0E934
:1003D00000834246D0E902A150460AF0F5FD0AD852
:1003E00064490846D1E904834246D0E902A1504657
:1003F0000AF002FE14D95F490846D1E9008342465B
:10040000D0E902A150460AF0F7FD0DD85948D0E9CD
:1004100004834246D0E902A150460AF0D5FD03D834
:100420005448D0E9024502E05248D0E9044520464C
:100430002946BDE8F09F2DE9F0410546002600243D
:100440002F4600E0761C17F8011B0029FAD1002482
:1004500003E0285D49490855641CB442F9D30122E0
:100460008021474809F0B8FE3146464808F087F930
:10047000BDE8F0812DE9FC5F4FF033314248CDE912
:1004800000104C42414D22462B46414903C90AF017
:1004900042FC404A03C2404903C90AF049FD061E16
:1004A00001DB304600E0704264281ADD22462B460C
:1004B000374903C90AF02FFC06460F4636480CC8D8
:1004C000DDE900010AF027FC80460022234B0AF0F8
:1004D00094FC824632463B460AF076FB2F4A03C222
:1004E00007E022462B462A4903C90AF014FC2B4A8E
:1004F00003C2BDE8FC9F2DE9FF5FC4B014461D4652
:100500002748284943914290274E284F2848294997
:100510004191409028492948CDE93E1000BF4FF055
:10052000000A37E1264901EB0A11C8680AF0E2FC2B
:10053000CDE90C01224901EB0A1188680AF0DAFCC6
:1005400040E00000FCA9F1D24D62503FA001002024
:1005500098010020200000200000594000408F40FA
:1005600000001440A8010020B00100202805002050
:10057000B801002040050020BC010020C00400207C
:1005800000380140440002403333E33FCCCCF43F19
:100590008800002000010020F80000200801002051
:1005A0006F1283C0CAA1E53F4489963C9E966FBFF7
:1005B000A70A462575028A3F7B14AE47E17A943F2D
:1005C000C0010020CDE90A01FE4901EB0A1148688B
:1005D0000AF090FCCDE90801FA4901EB0A1108681C
:1005E0000AF088FCCDE9060136A838A9CDE9041047
:1005F000DDE90C01CDE90201DDE90A01CDE90001E7
:1006000006A80FC804F08BFD3AA83CA9CDE902105A
:1006100059995898CDE90001DDE93623DDE9380123
:1006200004F088FE32463B46459944980AF073FB35
:10063000CDE90201539B529A0AF06DFB22462B46EC
:10064000CDE90601439942980AF065FBCDE9020124
:10065000DDE93C230AF05CFBCDE90401DDE906237A
:100660000AF0B2FA32463B46CDE90A010020D649EB
:100670000AF0C3FBCDE90801DDE90A230AF04BFBD0
:10068000CDE90C01DDE93E230AF045FBCDE934015B
:1006900022462B46304639460AF03DFBCDE90001A3
:1006A000419B409A0AF090FACDE90201459B449A99
:1006B0000AF031FBCDE90601539B529A43994298C7
:1006C0000AF029FBCDE90201DDE93A230AF020FB1B
:1006D000CDE90401DDE906230AF017FB32463B466B
:1006E000CDE90A010020B8490AF087FBCDE90801ED
:1006F000DDE90A230AF00FFBCDE90C01DDE93E2319
:100700000AF009FBCDE9320120462946DDE9342310
:100710000AF05AFA80468946DDE932235399529805
:100720000AF052FACDE93001579B569ADDE93001C3
:100730000AF0EBFACDE90801579B569ADDE9300142
:100740000AF0E3FACDE90601DDE908230AF0E3FA4D
:10075000CDE90C0140464946559B549A0AF0D5FA1A
:10076000CDE9080140464946559B549A0AF0CDFA16
:10077000CDE90601DDE908230AF0CDFACDE90A0149
:10078000DDE90C230AF020FA10AA02EBCA0203C228
:100790000AF1010ABAF1100FFFF6C4AE00200F9063
:1007A000DDE9102110460AF0C3FB0E904FF0010A5C
:1007B00012E00E980AF09EFBCDE90C0110A800EBA8
:1007C000CA00D0E900B35A460C980AF015FC01D2D1
:1007D000CDF83CA00AF1010ABAF1100FE9DB50464E
:1007E00048B0BDE8F09F2DE9F04FA1B082468B469E
:1007F00090469946DDE92A4500217448CDE91E104E
:100800007348CDE91C10734803C8CDE91A01724939
:1008100003C9CDE91801714903C9CDE91601704931
:100820007048CDE9141000BF6F48D0E900106F4A3E
:10083000C2E9001042464B46504659460AF065FA56
:10084000694A03C210A812A9CDE90410684803C878
:10085000CDE90201674903C9CDE90001664867494E
:100860000CC803C904F05BFC0022654B654903C951
:100870000AF0C3FACDE9080163480CC808980AF0E9
:10088000A3F9CDE90A010CA80EA9CDE90210DDE912
:100890000A01CDE900015D485D490CC803C904F0B7
:1008A00049FDDDE90E8942464B46504659460AF05D
:1008B0002CFA06460F4630463946DDE914230AF085
:1008C0009BFB0CD30022534BDDE914010AF023FA01
:1008D00032463B46CDE90A010AF08EFB55D242482A
:1008E0000CC800204FF080410AF015FA32463B4612
:1008F000CDE900010AF00CFACDE902013B480CC831
:1009000002980AF061F9CDE90401DDE916230AF045
:1009100002FA32463B46CDE90801DDE918010AF04A
:10092000FAF9CDE9040130480CC8304639460AF0DE
:10093000ECF9CDE90001DDE91A230AF0ECF9CDE983
:100940000201DDE904230AF03FF9CDE90601DDE902
:1009500008230AF039F922462B46CDE90A010AF0AC
:1009600033F904460D4620462946DDE91E230AF0E8
:1009700043FB01D2DDE91E4520462946DDE91C2363
:100980000AF022FB01D2DDE91C45204629460AF087
:10099000CFFA21B0BDE8F08F2DE9FF5F98B0904607
:1009A0009946DDE926454FF0000ADFF86CB00021DA
:1009B0001A48CDE9161000BF00BF00BF084909481A
:1009C0002EE00000C00100200000F03F00C0724097
:1009D00000C072C028010020300100203801002032
:1009E000B81E85EB51B89E3FC8020020D0020020FF
:1009F0006800002060000020580000205000002007
:100A0000000059402800002010000020780000203D
:100A1000700000200000F0BF00C0824000C082C013
:100A2000CDE90E1000BFFE48D0E90010FD4AC2E932
:100A3000001042464B46DDE918010AF066F9F84A13
:100A400003C2DDE90C89F84803C8CDE91401F74871
:100A500003C8CDE91201F64803C8CDE910014246AA
:100A60004B46DDE918010AF050F906460F463046BC
:100A70003946DDE90E230AF0BFFA0CD30022ED4B14
:100A8000DDE90E010AF047F932463B46CDE90A019D
:100A90000AF0B2FA55D2E2480CC800204FF080416B
:100AA0000AF039F932463B46CDE900010AF030F947
:100AB000CDE90201DB480CC802980AF085F8CDE9BF
:100AC0000401DDE910230AF026F932463B46CDE960
:100AD0000801DDE912010AF01EF9CDE90401D04850
:100AE0000CC8304639460AF010F9CDE90001DDE9BD
:100AF00014230AF010F9CDE90201DDE904230AF01C
:100B000063F8CDE90601DDE908230AF05DF8224625
:100B10002B46CDE90A010AF057F804460D46524625
:100B20005B46204629460AF067FA01D254465D46E4
:100B300020462946DDE916230AF046FA01D2DDE90E
:100B40001645204629460AF0F3F91CB0BDE8F09F8F
:100B50002DE9F04F89B004460D4616461F4600BFEA
:100B600000BFB14803C8CDE90601B04803C8CDE9CC
:100B7000040100BF00BF00BF204629460AF0D8F993
:100B8000B0F1000A01DB504601E0CAF10000B0F507
:100B9000967F01DA00242546304639460AF0C8F926
:100BA000B0F1000A01DB504601E0CAF100000A285A
:100BB00001DA0026374600229F4B304639460AF0BC
:100BC0001CF98246DDE904230AF0A5F800229A4BBD
:100BD000CDE90201204629460AF00FF98246DDE9F7
:100BE00006230AF098F8CDE90001DDE9022309F0B7
:100BF000EBFF804689464046494609B0BDE8F08F84
:100C00002DE9FF5F82B006460F46DDE916BADDE941
:100C1000144500BF0020019000BF204629460AF07D
:100C200087F9B0F1000801DB404601E0C8F100009F
:100C3000012801DA0024254680498148814AC2E919
:100C400000108149DDE9042303C90AF064F8CAE908
:100C500000017D480CC8304639460AF05CF8CBE903
:100C6000000100221346DAE9008140460AF0ACF99F
:100C700004D80021CAF80010CAF804100022734BEF
:100C8000DAE9008140460AF046F8CAE9000100228C
:100C90006E4BDBE9008140460AF03DF8CBE90001EC
:100CA00006B0BDE8F09F4FF0E020006940F004007E
:100CB0004FF0E02108616FF07F404861886108468D
:100CC000006940F00100086100BF70472DE9F05F46
:100CD000824600210C460D464FF0E020D0F818B0B7
:100CE000006920F001004FF0E0210861BAF1000F27
:100CF00011D050460AF00FF906460F466FF07F41BB
:100D0000A1EB0B000AF007F9804632463B460AF099
:100D100074F804460D4620462946BDE8F09F2DE9AB
:100D2000F04F8FB083468A464FF0000908E00BEB86
:100D3000C90103C904AA02EBC90203C209F10109EE
:100D4000B9F1050FF3DB4FF000092FE0002426E096
:100D500004A9601C01EBC00003C8CDE9020104A88E
:100D600000EBC40003C8CDE90001DDE902230AF06D
:100D700043F913D204A800EBC40060C804A9601CA6
:100D800001EBC000D0E9001004AA02EBC402C2E9E2
:100D9000001004A9601C01EBC00060C0641CAAEB39
:100DA0000900401EA042D3DC09F10109AAF10100AB
:100DB0004845CBDCDDE90878414638460FB0BDE850
:100DC000F08F2DE9F04F99B082468B4616461F46AC
:100DD000DDE9224500211E48CDE916101D48CDE968
:100DE0001410114903C9CDE91201104903C9CDE915
:100DF00010010F4803C8CDE90E0117491748CDE986
:100E00000C1000BF164903C9164A03C232463B46BE
:100E10005046594609F079FF114A03C224E0000008
:100E2000E8020020F002002028010020300100200C
:100E3000380100200000F0BF00408F405839B4C88E
:100E400076BEAF3F30030020200300200000794031
:100E500000008940000089C09A9999999999A93F01
:100E6000400300204803002007F017FC03900AF01D
:100E700041F80022FE4BCDE9040109F04CFF0022AD
:100E8000FC4BCDE9060109F0B8FF0022F94BCDE992
:100E9000080109F0B2FF0022F74BCDE90A0109F081
:100EA0003AFF06460F46F548C0C032463B4650461C
:100EB000594609F02AFF8046894640464946DDE901
:100EC0000C230AF099F80CD30022ED4BDDE90C015C
:100ED00009F021FF42464B46CDE90A010AF08CF8A1
:100EE00055D2E8480CC800204FF0804109F013FFAC
:100EF00042464B46CDE9000109F00AFFCDE9020167
:100F0000E1480CC8029809F05FFECDE90401DDE973
:100F10000E2309F000FF42464B46CDE90801DDE90A
:100F2000100109F0F8FECDE90401D6480CC840468E
:100F3000494609F0EAFECDE90001DDE9122309F096
:100F4000EAFECDE90201DDE9042309F03DFECDE929
:100F50000601DDE9082309F037FE22462B46CDE9DC
:100F60000A0109F031FE04460D4620462946DDE916
:100F700016230AF041F801D2DDE91645204629463C
:100F8000DDE914230AF020F801D2DDE91445BF4859
:100F90000068401CBD49086008460068052801DB60
:100FA000002008602046294609F0C2FF19B0BDE8BC
:100FB000F08F2DE9F04F99B082468B4616461F46BA
:100FC000DDE922450021B248CDE91610B148CDE94E
:100FD0001410B14903C9CDE91201B04903C9CDE9E3
:100FE0001001AF4803C8CDE90E01AE49AE48CDE9C6
:100FF0000C1000BFAD4903C9AD4A03C232463B469F
:101000005046594609F081FEA84A03C204F06BFD20
:10101000039009F06FFF0022954BCDE9040109F020
:101020007AFE0022934BCDE9060109F0E6FE00228C
:10103000904BCDE9080109F0E0FE00228E4BCDE98E
:101040000A0109F068FE06460F469A48C0C03246BB
:101050003B465046594609F058FE80468946404670
:101060004946DDE90C2309F0C7FF0CD30022844B6D
:10107000DDE90C0109F04FFE42464B46CDE90A017D
:1010800009F0BAFF55D289480CC800204FF08041C2
:1010900009F041FE42464B46CDE9000109F038FE19
:1010A000CDE9020182480CC8029809F08DFDCDE916
:1010B0000401DDE90E2309F02EFE42464B46CDE940
:1010C0000801DDE9100109F026FECDE904017748A9
:1010D0000CC84046494609F018FECDE90001DDE99B
:1010E000122309F018FECDE90201DDE9042309F01D
:1010F0006BFDCDE90601DDE9082309F065FD224617
:101100002B46CDE90A0109F05FFD04460D46204655
:101110002946DDE9162309F06FFF01D2DDE9164506
:1011200020462946DDE9142309F04EFF01D2DDE90E
:10113000144561480068401C5F4908600846006823
:10114000052801DB002008602046294609F0F0FE52
:1011500019B0BDE8F08F2DE9F04F99B082468B466B
:1011600016461F46DDE9224500214948CDE9161003
:101170004848CDE91410484903C9CDE91201474850
:1011800003C8CDE91001464803C8CDE90E01454921
:101190004548CDE90C1000BF4848D0E90010484A46
:1011A000C2E9001032463B465046594609F0ADFDB3
:1011B000424A03C204F073FC4042039009F09AFED5
:1011C00000222B4BCDE9040109F0A5FD0022294B9B
:1011D000CDE9060109F011FE0022264BCDE90801F8
:1011E00009F00BFE0022244BCDE90A0109F093FD22
:1011F00006460F463348C0C032463B465046594625
:1012000009F083FD8046894640464946DDE90C23C6
:1012100009F0F2FE0CD30022194BDDE90C0109F0B4
:101220007AFD42464B46CDE90A0109F0E5FE7DD242
:1012300022480CC800204FF0804109F06CFD424666
:101240004B46CDE9000109F063FDCDE902011C48E0
:101250000CC8029809F0B8FCCDE90401DDE90E23C1
:1012600009F059FD42464B46CDE908012CE000004B
:101270000000444000408F40000014405000002017
:101280000000F0BF40030020480300203803002086
:1012900000008940000089C02801002030010020A2
:1012A000380100209A9999999999A93F60030020E3
:1012B000680300205800002058030020800300200D
:1012C0008803002060000020DDE9100109F023FD03
:1012D000CDE90401FE480CC84046494609F015FD19
:1012E000CDE90001DDE9122309F015FDCDE9020188
:1012F000DDE9042309F068FCCDE90601DDE90823F6
:1013000009F062FC22462B46CDE90A0109F05CFC9B
:1013100004460D4620462946DDE9162309F06CFEF9
:1013200001D2DDE916452046294600E006E0DDE968
:10133000142309F049FE01D2DDE91445E5480068AF
:10134000401CE449086008460068052801DB0020CD
:1013500008602046294609F0EBFD19B0BDE8F08F82
:101360002DE9F04F99B082468B4616461F46DDE9BF
:1013700022450021D848CDE91610D848CDE91410EF
:10138000D74903C9CDE91201D64803C8CDE91001F8
:10139000D54803C8CDE90E01D449D548CDE90C1094
:1013A00000BFD448D0E90010D34AC2E90010324649
:1013B0003B465046594609F0A8FCCE4A03C207F006
:1013C00048F94042039009F095FD0022CB4BCDE94E
:1013D000040109F0A0FC0022C94BCDE9060109F087
:1013E0000CFD0022C64BCDE9080109F006FD0022E4
:1013F000C44BCDE90A0109F08EFC06460F46C248EF
:10140000C0C032463B465046594609F07EFC8046F5
:10141000894640464946DDE90C2309F0EDFD0CD331
:101420000022BA4BDDE90C0109F075FC42464B463F
:10143000CDE90A0109F0E0FD55D2AE480CC8002004
:101440004FF0804109F067FC42464B46CDE9000170
:1014500009F05EFCCDE90201A7480CC8029809F02A
:10146000B3FBCDE90401DDE90E2309F054FC42464B
:101470004B46CDE90801DDE9100109F04CFCCDE94E
:1014800004019C480CC84046494609F03EFCCDE9A1
:101490000001DDE9122309F03EFCCDE90201DDE99E
:1014A000042309F091FBCDE90601DDE9082309F0E9
:1014B0008BFB22462B46CDE90A0109F085FB044649
:1014C0000D4620462946DDE9162309F095FD01D297
:1014D000DDE9164520462946DDE9142309F074FDAF
:1014E00001D2DDE914458A480068401C884908603B
:1014F00008460068052801DB0020086020462946D0
:1015000009F016FD19B0BDE8F08F70B505460C4620
:10151000012D14D1012C08D141027E4807F0DBFBDC
:10152000A1027C4807F0D9FB09E04FF480617948BB
:1015300007F0D1FB4FF40071764807F0CEFB022D87
:1015400013D1012C08D12102724807F0C4FB80217D
:10155000704807F0C2FB08E080216E4807F0BBFB33
:101560004FF480716B4807F0B8FB032D14D1012CA8
:1015700008D1E102684807F0AEFB2103664807F096
:10158000ACFB09E04FF48051634807F0A4FB4FF433
:101590000061614807F0A1FB042D12D1012C08D194
:1015A00080215D4807F097FB40215B4807F095FBE1
:1015B00007E04021584807F08EFB8021564807F08D
:1015C0008CFB70BD1FB5A4B0544A554B554903C997
:1015D00009F0A1FB0022544BCDE90C0109F00DFCF0
:1015E000524A534BCDE90E0109F095FB4F4A514B3E
:1015F000CDE91201DDE92A0109F08DFBCDE91001E9
:10160000DDE9122309F0E0FACDE9220100BF00BFB5
:1016100000BF00BF00BF00BF00BF00BF46480CC8EE
:10162000DDE9220109F0D0FACDE910010BF09AFCB6
:10163000CDE91201DDE9242309F06DFBCDE920019C
:101640003E480CC8DDE9220109F05FFBCDE90E013F
:1016500039480CC80E9809F0B7FACDE910010BF023
:1016600081FCCDE91201DDE9242309F054FBCDE929
:101670001E0100224FF08043304903C909F04BFBA3
:10168000CDE90C01DDE9222309F042FBCDE90E0191
:1016900029480CC80E9809F097FACDE910010BF013
:1016A00061FCCDE91201DDE9242309F034FBCDE929
:1016B0001C010022224B214903C909F02CFBCDE972
:1016C0000C01DDE9222309F023FBCDE90E0139E00D
:1016D000800300207803002000008940000089C0BA
:1016E0002801002030010020380100209A999999A2
:1016F0009999A93FA0030020A803002000004440BE
:1017000000408F4000001440680000200000F0BF3F
:1017100098030020001C0140000801406E861BF069
:10172000F9210940D0000020000039407B14AE4769
:10173000E17A943FE17A843F100000200800002005
:1017400000000840FE480CC80E9809F03DFACDE9AB
:1017500010010BF007FCCDE91201DDE9242309F0AB
:10176000DAFACDE91A0100221346DDE9260109F073
:101770002BFC7CD0F34903C909F0DAFB1390002855
:1017800001DB139801E013984042032870DAEC481B
:101790000CC8DDE9220109F017FACDE90A010BF0C6
:1017A000E1FBE94AE94BCDE90E01DDE9260109F04B
:1017B000B2FACDE90C01DDE90E2309F0ACFACDE96E
:1017C0001001E3480CC8109809F09FFACDE9120106
:1017D000E0480CC8129809F0F7F9DE4A03C2DE4867
:1017E0000CC8DDE9220109F090FACDE90801D448DE
:1017F0000CC8089809F0E8F9CDE90A010BF0B2FB32
:10180000CDE90E010020D549DDE9262309F083FA50
:10181000CD4ACE4BCDE90A0109F07DFACDE90C01A4
:10182000DDE90E2309F077FACDE91001CC480CC8A8
:10183000109809F06AFACDE91201CA480CC812984A
:1018400009F0C2F9C74A03C200224FF08043C249DF
:1018500003C909F060FACDE90601DDE9222309F0A8
:1018600057FACDE90801B6480CC8089801E0BFE175
:101870005EE009F0A9F9CDE90A010BF073FBCDE9AF
:101880000E010020B549DDE9262309F044FAAE4AED
:10189000AE4BCDE90A0109F03EFACDE90C01DDE9D4
:1018A0000E2309F038FACDE91001AF480CC81098A2
:1018B00009F02BFACDE91201AC480CC8129809F0D6
:1018C00083F9AA4A03C20022A94BA34903C909F01C
:1018D00022FACDE90601DDE9222309F019FACDE962
:1018E000080197480CC8089809F06EF9CDE90A017B
:1018F0000BF038FB944A954BCDE90E01DDE926014A
:1019000009F009FACDE90C01DDE90E2309F003FA2B
:10191000CDE9100197480CC8109809F0F6F9CDE907
:10192000120195480CC8129809F04EF9924A03C268
:1019300000BF00BF914803C8CDE91801904903C911
:10194000CDE9160183480CC8DDE9160109F0E3F979
:10195000CDE90C01DDE9262309F0DDF9CDE910011F
:1019600077480CC8DDE9220109F02EF9CDE9040120
:101970000BF0F8FA744A754BCDE90801DDE9260150
:1019800009F0C9F9CDE90601DDE9082309F0C3F939
:10199000CDE90A016E480CC80A9809F0B6F9CDE9FC
:1019A0000C01DDE9182309F0B6F9CDE90E01DDE9F6
:1019B000102309F009F9CDE91201DDE9202309F02E
:1019C00003F9CDE9200167480CC8DDE9160109F0EB
:1019D000A2F9CDE90C01DDE9262309F09CF9CDE956
:1019E00010015D480CC8DDE9220109F08EF9CDE94E
:1019F000020153480CC8029809F0E6F8CDE9040149
:101A00000BF0B0FACDE9080100205449DDE92623A6
:101A100009F081F94C4A4D4BCDE9040109F07BF9FD
:101A2000CDE90601DDE9082309F075F9CDE90A01E0
:101A30004B480CC80A9809F068F9CDE90C01DDE9BA
:101A4000182309F068F9CDE90E01DDE9102309F04A
:101A5000BBF8CDE91201DDE91E2309F059F9CDE902
:101A60001E0142480CC8DDE9160109F054F9CDE920
:101A70000C01DDE9262309F04EF900224FF08043E6
:101A8000CDE91001344903C909F045F9CDE9000158
:101A9000DDE9222309F03CF9CDE9020128480CC810
:101AA000029809F091F8CDE904010BF05BFACDE959
:101AB000080100202949DDE9262309F02CF9224AF2
:101AC000224BCDE9040109F026F9CDE90601DDE953
:101AD000082309F020F9CDE90A0123480CC80A9827
:101AE00009F013F9CDE90C01DDE9182309F013F928
:101AF000CDE90E01DDE9102309F066F8CDE9120108
:101B0000DDE91C2309F004F9CDE91C011A480CC8D1
:101B1000DDE9160109F0FFF8CDE90C01DDE9262326
:101B200009F0F9F80022124BCDE910010A4903C966
:101B300009F0F1F8CDE90001DDE9222322E00000FF
:101B400010000020E000002039B4C876BE9FE63FB8
:101B500050000020B8030020080000200000F0BF63
:101B600058000020C003002060000020C8030020AF
:101B70000000084068000020D00300202801002059
:101B80003001002009F0C4F8CDE90201FE480CC87C
:101B9000029809F019F8CDE904010BF0E3F9FB4ACA
:101BA000FB4BCDE90801DDE9260109F0B4F8CDE9E8
:101BB0000601DDE9082309F0AEF8CDE90A01F54890
:101BC0000CC80A9809F0A1F8CDE90C01DDE9182349
:101BD00009F0A1F8CDE90E01DDE9102308F0F4FFCA
:101BE000CDE91201DDE91A2308F0EEFFCDE91A0173
:101BF000E949EA48CDE91410E94903C909F098F91F
:101C00001390002801DB139801E013984042032849
:101C10007EDDDD480CC8DDE9220108F0D5FFCDE905
:101C20000A010BF09FF90022DE4BCDE90E01DDE940
:101C3000140109F070F8CDE90801D9480CC80898DA
:101C400009F069F8D84AD94BCDE90A0109F063F8DF
:101C5000CDE90C01DDE90E2309F05DF8D44AD54B3E
:101C6000CDE9100109F0C9F8CDE91201DDE9202321
:101C700009F04EF8CDE92001C3480CC8DDE9220186
:101C800008F0A2FFCDE90601CB480CC8069809F080
:101C90003CF8CA4ACA4BCDE9080108F095FFCDE9E6
:101CA0000A010BF05FF90022BE4BCDE90E01DDE920
:101CB000140109F030F8CDE90601B9480CC80698BE
:101CC00009F029F80022BF4BCDE9080109F023F8FB
:101CD000B54AB64BCDE90A0109F01DF8CDE90C0172
:101CE000DDE90E2309F017F8B14AB24BCDE9100136
:101CF00009F083F8CDE91201DDE91E2308F064FF45
:101D0000CDE91E0100224FF08043AB4903C900E03A
:101D100089E009F000F8CDE908019B480CC8DDE92D
:101D2000220108F051FFCDE90601DDE9082308F0A2
:101D3000ECFFCDE90A010BF015F90022994BCDE932
:101D40000E01DDE9140108F0E6FFCDE90601944833
:101D50000CC8069808F0DFFF00229A4BCDE9080175
:101D600008F0D9FF904A914BCDE90A0108F0D3FF62
:101D7000CDE90C01DDE90E2308F0CDFF8C4A8D4B37
:101D8000CDE9100109F039F8CDE91201DDE91C2394
:101D900008F01AFFCDE91C0100228B4B864903C9CC
:101DA00008F0B9FFCDE9060177480CC8DDE922014A
:101DB00008F00AFFCDE90401DDE9062308F0A5FFDC
:101DC0007E4A7F4BCDE9080108F0FEFECDE90A010D
:101DD0000BF0C8F80022734BCDE90E01DDE91401C8
:101DE00008F099FFCDE908016D480CC8089808F083
:101DF00092FF6D4A6D4BCDE90A0108F08CFFCDE9E9
:101E00000C01DDE90E2308F086FF694A694BCDE934
:101E1000100108F0F2FFCDE91201DDE91A2308F004
:101E200077FFCDE91A0100221346DDE9200109F010
:101E3000E3F819D86548006809F05CF8CDE90E01AF
:101E4000DDE9202308F061FFCDE9100109F08FF8EA
:101E500080B2014613904FF0804008F077F80121DE
:101E60000846FFF752FB29E0DDE9200109F060F8A0
:101E70001390002801DB139801E013984042129060
:101E800009F038F8CDE920015048006809F032F82F
:101E9000CDE90E01DDE9202308F037FFCDE910017F
:101EA00009F065F880B2014613904FF0804008F0C9
:101EB0004DF84FF0FF310120FFF727FB00221346BA
:101EC000DDE91E0109F098F819D84048006809F0CA
:101ED00011F8CDE90E01DDE91E2308F016FFCDE96A
:101EE000100109F044F880B2014613904FF0804091
:101EF00008F02EF801210220FFF707FB29E0DDE9B9
:101F00001E0109F015F81390002801DB139801E079
:101F100013984042129008F0EDFFCDE91E012B48C6
:101F2000006808F0E7FFCDE90E01DDE91E2308F0A7
:101F3000ECFECDE9100109F01AF880B201461390C9
:101F40004FF0804008F004F84FF0FF310220FFF717
:101F5000DCFA00221346DDE91C0109F04DF840D8F7
:101F60001A48006808F0C6FFCDE90E01DDE91C2320
:101F700008F0CBFECDE9100108F0F9FF80B2014670
:101F80001390134826E000001000002039B4C876F2
:101F9000BE9FE63F680000209A9999999999E93F78
:101FA000E00000200000794094F6065F984C653F01
:101FB000B6847CD0B359D13F080000206E861BF058
:101FC000F921F93F0000F0BF0000084004000020A4
:101FD0000004004007F0BEFF01210320FFF795FA3F
:101FE00028E0DDE91C0108F0A3FF1390002801DBC5
:101FF000139801E013984042129008F07BFFCDE95E
:102000001C01FC48006808F075FFCDE90E01DDE910
:102010001C2308F07AFECDE9100108F0A8FF80B279
:1020200001461390F44807F095FF4FF0FF3103206D
:10203000FFF76BFA00221346DDE91A0108F0DCFF16
:1020400018D8EC48006808F055FFCDE90E01DDE92D
:102050001A2308F05AFECDE9100108F088FF80B27B
:1020600001461390E44807F077FF01210420FFF7B1
:102070004CFA28E0DDE91A0108F05AFF1390002815
:1020800001DB139801E013984042129008F032FFF0
:10209000CDE91A01D748006808F02CFFCDE90E0100
:1020A000DDE91A2308F031FECDE9100108F05FFFE9
:1020B00080B201461390D04807F04EFF4FF0FF3139
:1020C0000420FFF722FA28B010BD2DE9F04F97B099
:1020D00083468A460021C948CDE91410C848C94939
:1020E000CDE91201C849C948CDE91010C849C9480D
:1020F000CDE90E10C84AC94BC94903C908F00BFE07
:102100000022C84BCDE9060108F077FEC64AC74B4E
:10211000CDE9080108F0FFFDCDE90C01504608F0BB
:10212000E9FEC14AC24BCDE9080108F0F4FDCDE952
:102130000A01DDE90C2308F047FD07468846BD4843
:102140000CC83846414608F03FFDCDE904010AF0CD
:1021500009FFCDE90801584608F0CCFECDE906019B
:10216000DDE9082308F0D7FDCDE90A01DDE91423F4
:1021700008F0D1FDCDE90C0108F0DAFE0446AE48C6
:102180000CC83846414608F0C0FDCDE90201A94817
:102190000CC8029808F018FDCDE904010AF0E2FE2F
:1021A000CDE90801584608F0A5FECDE90601DDE9B4
:1021B000082308F0B0FDCDE90A01DDE9122308F09B
:1021C000AAFDCDE90C0108F0B3FE054600224FF050
:1021D0008043994903C908F09EFD3A464346CDE93C
:1021E000000108F095FDCDE9020192480CC8029863
:1021F00008F0EAFCCDE904010AF0B4FECDE90801DB
:10220000584608F077FECDE90601DDE9082308F01D
:1022100082FDCDE90A01DDE9102308F07CFDCDE95E
:102220000C0108F085FE06460022844B824903C952
:1022300008F071FD3A464346CDE9000108F068FD1B
:10224000CDE902017B480CC8029808F0BDFCCDE93D
:1022500004010AF087FECDE90801584608F04AFE5D
:10226000CDE90601DDE9082308F055FDCDE90A01B5
:10227000DDE90E2308F04FFDCDE90C0108F058FE12
:102280008146484608F036FECDE90C01304608F09C
:1022900031FECDE90A01284608F02CFECDE90801FF
:1022A000204608F027FECDE9060165486549CDE9DD
:1022B0000410DDE90C01CDE90201DDE90A01CDE9F7
:1022C000000106A80FC802F02AFF504608F012FECF
:1022D00000225D4BCDE9080108F08FFDCDE90A0130
:1022E00054480CC80A9808F06FFCCDE90C01574817
:1022F0005749CDE90210DDE90C01CDE90001504854
:1023000050490CC803C903F015F8002C0CDB394800
:102310000088001B81B24FF0804007F017FE0121BA
:102320000846FFF7F2F812E0201E01DB014600E04C
:1023300041420C462F480088001B81B24FF080407C
:1023400007F004FE4FF0FF310120FFF7DEF8002D0B
:102350000CDB28480088401B81B24FF0804007F01A
:10236000F7FD01210220FFF7D0F812E0281E01DB63
:10237000014600E041420D461E480088401B81B2E4
:102380004FF0804007F0E4FD4FF0FF310220FFF7EF
:10239000BCF8002E0BDB17480088801B81B2164862
:1023A00007F0D8FD01210320FFF7AFF811E0301E40
:1023B00001DB014600E041420E460E480088801BCA
:1023C00081B20D4807F0C6FD4FF0FF310320FFF743
:1023D0009CF8B9F1000F3DDB06480088A0EB09002E
:1023E00081B2054807F0B8FD01210420FFF78DF800
:1023F00044E0000004000020000400400000F03F22
:1024000014AE47E17A14F23FF6285C8FC2F5F03F34
:10241000B81E85EB51B8EE3F6E861BF0F9210940DE
:10242000D0000020000039407B14AE47E17A943F91
:10243000E17A843F100000200800002000000840DE
:10244000980000209000002000005940A8000020C3
:10245000A0000020B9F1000001DB014600E041428C
:102460008946FE480088A0EB090081B2FC4807F0CD
:1024700073FD4FF0FF310420FFF747F817B0BDE8B8
:10248000F08F03B5A7B00020F649CDE92401F64846
:10249000F649CDE92201F648F649CDE92001F64991
:1024A000F648CDE91E100020F549CDE91C01F54A9A
:1024B000F54BF64903C908F02EFC0022F44BCDE998
:1024C0000A0108F09AFCF34AF34BCDE90C0108F03D
:1024D00022FCCDE91001289808F00CFDED4AEF4BE5
:1024E000CDE90C0108F017FCCDE90E01DDE9102360
:1024F00008F06AFBCDE91A01E9480CC8DDE91A01C8
:1025000008F062FBCDE90C010AF02CFDCDE91001C9
:10251000279808F0EFFCCDE90C01DDE9242308F051
:10252000FAFBCDE90E01DDE9102308F0F4FBCDE95B
:102530001801DC480CC8DDE91A0108F045FBCDE9BB
:102540000A01D7480CC80A9808F03EFBCDE90C01F7
:102550000AF008FDCDE91001279808F0CBFCCDE981
:102560000C01DDE9222308F0D6FBCDE90E01DDE9FF
:10257000102308F0D0FBCDE9160100224FF0804374
:10258000C84903C908F0C7FBCDE90801DDE91A23F2
:1025900008F01AFBCDE90A01C1480CC80A9808F0F6
:1025A00013FBCDE90C010AF0DDFCCDE91001279801
:1025B00008F0A0FCCDE90C01DDE9202308F0ABFB1D
:1025C000CDE90E01DDE9102308F0A5FBCDE91401EA
:1025D0000022B54BB34903C908F09DFBCDE90801C2
:1025E000DDE91A2308F0F0FACDE90A01AC480CC87D
:1025F0000A9808F0E9FACDE90C010AF0B3FCCDE93C
:102600001001279808F076FCCDE90C01DDE91E23C6
:1026100008F081FBCDE90E01DDE9102308F07BFB1A
:10262000CDE912019E480CC8DDE91A0108F0CCFA88
:10263000CDE904010AF096FCCDE90801279808F0DD
:1026400059FCCDE90601DDE9082308F064FB00220E
:102650008B4BCDE90A0108F0D0FBCDE90C01934882
:102660000CC80C9808F051FBCDE90E01DDE91C23E4
:1026700008F051FBCDE91001DDE9182308F0A4FAB8
:10268000CDE9180186480CC8DDE91A0108F09CFA6A
:10269000CDE9020183480CC8029808F095FACDE90B
:1026A00004010AF05FFCCDE90801279808F022FC3C
:1026B000CDE90601DDE9082308F02DFB0022704B6F
:1026C000CDE90A0108F099FBCDE90C0178480CC866
:1026D0000C9808F01AFBCDE90E01DDE91C2308F087
:1026E0001AFBCDE91001DDE9162308F06DFACDE9FA
:1026F000160100224FF080436A4903C908F00BFB22
:10270000CDE9020166480CC8DDE91A0108F05CFA5F
:10271000CDE90001DDE9022308F056FACDE9040114
:102720000AF020FCCDE90801279808F0E3FBCDE989
:102730000601DDE9082308F0EEFA0022504BCDE94E
:102740000A0108F05AFBCDE90C015A480CC80C9854
:1027500008F0DBFACDE90E01DDE91C2308F0DBFA15
:10276000CDE91001DDE9142308F02EFACDE91401BA
:1027700000224D4B4B4903C908F0CDFACDE90201C7
:1027800047480CC8DDE91A0108F01EFACDE900013E
:10279000DDE9022308F018FACDE904010AF0E2FBB2
:1027A000CDE90801279808F0A5FBCDE90601DDE990
:1027B000082308F0B0FA0022314BCDE90A0108F0F5
:1027C0001CFBCDE90C013C480CC80C9808F09DFAA4
:1027D000CDE90E01DDE91C2308F09DFACDE91001D9
:1027E000DDE9122308F0F0F9CDE91201334834494C
:1027F000CDE90410DDE91201CDE90201DDE91401A2
:10280000CDE90001DDE91623DDE9180102F087FCBE
:10281000289808F06FFB00222A4BCDE90C0108F044
:10282000ECFACDE90E011E480CC80E9808F0CCF960
:10283000CDE9100124482549CDE90210DDE9100158
:10284000CDE900011D481E490CC803C902F072FD04
:1028500000221346DDE918013AE0000004000020E0
:10286000000400400000F43F2B15A05AFDABF43FDC
:1028700042317271D852F73F97D139682EC6F73F6F
:10288000000079406E861BF0F9210940D00000203D
:10289000000039407B14AE47E17A943FE17A843FEF
:1028A0001000002008000020000008405000002018
:1028B00058000020600000206800002098000020E0
:1028C0009000002000005940A8000020A000002037
:1028D00008F092FB19D8F848006808F00BFBCDE926
:1028E0000C01DDE9182308F010FACDE90E0108F01B
:1028F0003EFB80B2014611904FF0804007F026FB6E
:1029000001210846FEF701FE29E0DDE9180108F083
:102910000FFB1190002801DB119801E01198404253
:10292000109008F0E7FACDE91801E348006808F0D4
:10293000E1FACDE90C01DDE9182308F0E6F9CDE96B
:102940000E0108F014FB80B2014611904FF0804058
:1029500007F0FCFA4FF0FF310120FEF7D6FD002210
:102960001346DDE9160108F047FB19D8D248006884
:1029700008F0C0FACDE90C01DDE9162308F0C5F92D
:10298000CDE90E0108F0F3FA80B2014611904FF044
:10299000804007F0DDFA01210220FEF7B6FD29E0B4
:1029A000DDE9160108F0C4FA1190002801DB119846
:1029B00001E011984042109008F09CFACDE9160110
:1029C000BD48006808F096FACDE90C01DDE9162350
:1029D00008F09BF9CDE90E0108F0C9FA80B2014672
:1029E00011904FF0804007F0B3FA4FF0FF31022012
:1029F000FEF78BFD00221346DDE9140108F0FCFA16
:102A000018D8AD48006808F075FACDE90C01DDE989
:102A1000142308F07AF9CDE90E0108F0A8FA80B283
:102A200001461190A54807F095FA01210320FEF711
:102A30006CFD28E0DDE9140108F07AFA1190002815
:102A400001DB119801E011984042109008F052FA11
:102A5000CDE914019848006808F04CFACDE90C0162
:102A6000DDE9142308F051F9CDE90E0108F07FFAF1
:102A700080B201461190914807F06CFA4FF0FF3197
:102A80000320FEF742FD00221346DDE9120108F0A3
:102A9000B3FA18D88848006808F02CFACDE90C0180
:102AA000DDE9122308F031F9CDE90E0108F05FFAF3
:102AB00080B201461190814807F04EFA01210420AE
:102AC000FEF723FD28E0DDE9120108F031FA11904C
:102AD000002801DB119801E011984042109008F0A5
:102AE00009FACDE912017448006808F003FACDE94B
:102AF0000C01DDE9122308F008F9CDE90E0108F018
:102B000036FA80B2014611906C4807F025FA4FF072
:102B1000FF310420FEF7F9FC29B000BD2DE9F04F8C
:102B200095B006460F4690469946DDE91E4500BF22
:102B300000BF002112911391109111910E910F91EC
:102B40000C910D915E4A5F4B5F4903C908F0E3F8B1
:102B5000824600225D4B08F050F95D4A5D4BCDE99D
:102B6000000108F0D8F800225B4BCDE904012046B3
:102B7000294608F042F9824658480CC8504608F0E9
:102B800023F8CDE90201DDE9042308F01DF8CDE9C1
:102B9000060108A80AA9CDE90210DDE906014246AE
:102BA0004B46CDE900013046394602F005FC0CA841
:102BB0000EA910AA12ABCDE90032CDE90210DDE971
:102BC0000823DDE90A0102F041FC454A454BDDE9F5
:102BD0000E0108F0A0F8CDE90E01414A414BDDE9B4
:102BE0000C0108F098F8CDE90C01394A3E4B20461B
:102BF000294608F090F8824638480CC8504607F03D
:102C0000E3FFCDE906010AF0ADF9314A364B204623
:102C1000294608F080F8354A354BCDE9060107F022
:102C2000D3FF82460AF09EF9294A2F4B20462946B7
:102C300008F071F882462D4A2E4B07F0C5FFCDE90A
:102C400006010AF08FF9224A274B2046294608F050
:102C500062F8294A294BCDE9060107F0B5FF824603
:102C60000AF080F900221346DDE9120108F0C4F9E8
:102C700018D81148006808F03DF9CDE90401DDE9F4
:102C8000122308F042F8824608F071F980B201463A
:102C900007904FF0804007F059F901210846FEF7F0
:102CA00034FC4DE0DDE9120108F042F9B0F1000A10
:102CB00026DB514626E0000004000020000400400E
:102CC0006E861BF0F9210940D00000200000394039
:102CD0007B14AE47E17A943F000059401000002079
:102CE000B81E85EB51B8F23FE17A843FD2A4147448
:102CF0007BD902407BD912403BF71E2E39461C403F
:102D0000CAF10001084608F0F5F8CDE91201F948CA
:102D1000006808F0EFF8CDE90401DDE9122307F0BF
:102D2000F4FF824608F023F980B2014607904FF085
:102D3000804007F00BF94FF0FF310120FEF7E5FB73
:102D400000221346DDE9100108F056F918D8E948C9
:102D5000006808F0CFF88246DDE9102307F0D5FFC0
:102D6000CDE9040108F003F980B2014607904FF065
:102D7000804007F0EDF801210220FEF7C6FB28E0B5
:102D8000DDE9100108F0D4F8B0F1000A01DB51468A
:102D900001E0CAF10001084608F0ACF8CDE91001E5
:102DA000D448006808F0A6F88246DDE9102307F051
:102DB000ACFFCDE9040108F0DAF880B201460790D3
:102DC0004FF0804007F0C4F84FF0FF310220FEF7CB
:102DD0009CFB00221346DDE90E0108F00DF917D81F
:102DE000C448006808F086F88246DDE90E2307F043
:102DF0008CFFCDE9040108F0BAF880B201460790D3
:102E0000BD4807F0A7F801210320FEF77EFB27E06D
:102E1000DDE90E0108F08CF8B0F1000A01DB514643
:102E200001E0CAF10001084608F064F8CDE90E019E
:102E3000B048006808F05EF8CDE90401DDE90E2332
:102E400007F063FF824608F092F880B201460790CF
:102E5000A94807F07FF84FF0FF310320FEF755FB3C
:102E600000221346DDE90C0108F0C6F817D8A14886
:102E7000006808F03FF8CDE90401DDE90C2307F014
:102E800044FF824608F073F880B2014607909A48E2
:102E900007F062F801210420FEF737FB27E0DDE9A7
:102EA0000C0108F045F8B0F1000A01DB514601E0E1
:102EB000CAF10001084608F01DF8CDE90C018D4863
:102EC000006808F017F8CDE90401DDE90C2307F0EC
:102ED0001CFF824608F04BF880B2014607908648F6
:102EE00007F03AF84FF0FF310420FEF70EFB15B063
:102EF000BDE8F08F2DE9F04F8BB015461E467F4A96
:102F00007F4BDDE9140107F006FF074688467D4840
:102F10000CC83846414607F057FECDE904010AF0D7
:102F200021F82A463346CDE9060107F0F4FECDE943
:102F3000080107F0FDFF044673480CC838464146B7
:102F400007F042FECDE902016E480CC8029807F076
:102F50003BFECDE904010AF005F82A463346CDE9E7
:102F6000060107F0D8FECDE9080107F0E1FF814630
:102F700000224FF08043644903C907F0CCFE3A4673
:102F80004346CDE9000107F01FFECDE902015D488F
:102F90000CC8029807F018FECDE9040109F0E2FF21
:102FA0002A463346CDE9060107F0B5FECDE9080112
:102FB00007F0BEFF82460022544B534903C907F075
:102FC000AAFE3A464346CDE9000107F0FDFDCDE9F2
:102FD00002014C480CC8029807F0F6FDCDE9040147
:102FE00009F0C0FF2A463346CDE9060107F093FEFB
:102FF000CDE9080107F09CFF8346002C0CDB3D481F
:103000000088001B81B24FF0804006F09FFF012135
:103010000846FEF77AFA12E0201E01DB014600E0C6
:1030200041420C4633480088001B81B24FF080407B
:1030300006F08CFF4FF0FF310120FEF766FAB9F180
:10304000000F0DDB2B480088A0EB090081B24FF088
:10305000804006F07DFF01210220FEF756FA14E0C1
:10306000B9F1000001DB014600E0414289462148F8
:103070000088A0EB090081B24FF0804006F068FFA5
:103080004FF0FF310220FEF740FABAF1000F0CDBDF
:1030900018480088A0EB0A0081B2174806F05AFFD2
:1030A00001210320FEF731FA13E0BAF1000001DB41
:1030B000014600E041428A460E480088A0EB0A0023
:1030C00081B20D4806F046FF4FF0FF310320FEF7B6
:1030D0001CFABBF1000F1BDB06480088A0EB0B00BD
:1030E00081B2054806F038FF01210420FEF70DFAF1
:1030F00022E0000004000020000400407B14AE47E2
:10310000E17A843F10000020080000200000084001
:10311000BBF1000001DB014600E041428B46FE4866
:103120000088A0EB0B0081B2FC4806F015FF4FF0C1
:10313000FF310420FEF7E9F90BB0BDE8F08F2DE96F
:10314000F04F95B004460D469246504607F0D2FE29
:10315000F34AF44BCDE90C0107F0DDFD06460F46BE
:10316000F1480CC83046394607F02EFDCDE90A017A
:1031700009F0F8FE22462B46CDE90C0107F0CBFD05
:1031800080468946E9480CC83046394607F01CFDA0
:10319000CDE90801E4480CC8089807F015FDCDE911
:1031A0000A0109F0DFFE22462B46CDE90C0107F0AB
:1031B000B2FDCDE9120100224FF08043DB4903C983
:1031C00007F0A9FD32463B46CDE9060107F0FCFCBD
:1031D000CDE90801D4480CC8089807F0F5FCCDE902
:1031E0000A0109F0BFFE22462B46CDE90C0107F08B
:1031F00092FDCDE910010022CD4BCC4903C907F067
:103200008AFD32463B46CDE9060107F0DDFCCDE9FB
:103210000801C5480CC8089807F0D6FCCDE90A019A
:1032200009F0A0FE22462B46CDE90C0107F073FD04
:10323000CDE90E01BF48006807F05CFECDE90C0146
:10324000CDE90001BC480CC840464946FDF7B9FD30
:10325000B8490860B948006807F04CFECDE90C0198
:10326000CDE90001B6480CC8DDE91201FDF7A1FE69
:10327000B2490860B348006807F03CFECDE90C0194
:10328000CDE90001B0480CC8DDE91001FDF763FF8E
:10329000AC490860AD48006807F02CFECDE90C0190
:1032A000CDE90001AA480CC8DDE90E01FEF758F887
:1032B000A6490860A64803C8CDE90C01DDE90E0166
:1032C000CDE90A01A04803C8CDE90801DDE91001F4
:1032D000CDE906019A4803C8CDE90401DDE91201F0
:1032E000CDE90201944903C942464B46CDE90001AC
:1032F00098A008F0BDFB8F48006800280EDD8648C6
:1033000000888C4A1288801A81B24FF0804006F003
:103310001DFE01210846FEF7F8F816E08548D0F8B2
:1033200000B0BBF1000F01DB584601E0CBF100001B
:10333000794A1288101A81B24FF0804006F006FEDA
:103340004FF0FF310120FEF7E0F87C4800680028CC
:103350000EDB71480088794A1288801A81B24FF0DA
:10336000804006F0F5FD01210220FEF7CEF816E0C0
:103370007248D0F800B0BBF1000F01DB584601E005
:10338000CBF10000644A1288101A81B24FF08040DD
:1033900006F0DEFD4FF0FF310220FEF7B6F8694877
:1033A000006800280DDB5C480088664A1288801A95
:1033B00081B25A4806F0CEFD01210320FEF7A5F8A0
:1033C00015E06048D0F800B0BBF1000F01DB5846B3
:1033D00001E0CBF10000504A1288101A81B24F4828
:1033E00006F0B8FD4FF0FF310320FEF78EF8574886
:1033F000006800280DDB48480088544A1288801A6B
:1034000081B2464806F0A8FD01210420FEF77DF8B0
:1034100015E04E48D0F800B0BBF1000F01DB584674
:1034200001E0CBF100003C4A1288101A81B23B48FF
:1034300006F092FD4FF0FF310420FEF766F815B05C
:10344000BDE8F08F2DE9F04107460D4616461C46B3
:103450000121304605F04EFE25801020E07003204B
:10346000A0702146384605F089FB2946384605F00C
:1034700034FCBDE8F08108B56B4680224FF4F06162
:103480003D48FFF7DFFF6B4604224FF4C6513B482F
:10349000FFF7D8FF6B4608224FF4C0513848FFF7BA
:1034A000D1FF08BD2DE9FF5F00BF05210E2001F00F
:1034B00008FD074607F019FD044607F071FD0546B3
:1034C0004FF066322F4B07F026FC2F4A03C205212E
:1034D0000F2001F0F6FC074607F007FD044607F051
:1034E0005FFD05464FF06632264B07F014FC274A75
:1034F00003C2274A274B244903C907F07EFC224A0E
:1035000003C2254A254B214903C907F076FC1F4A0F
:1035100003C20022224B45E00400002000040040CA
:103520007B14AE47E17A843F1000002008000020A1
:1035300000000840D803002050000020DC030020D9
:1035400058000020E003002060000020E403002079
:1035500068000020256C662C256C662C256C662C7A
:10356000256C662C256C662C256C662C256C662CCF
:10357000256C660A00000000001C014000080140A4
:10358000000C014066664A3F4000002048000020D1
:1035900014AE47E17A140A409A9999999999104082
:1035A0000000E03FFE4903C907F0AFFBFC4A03C23D
:1035B0000022FC4BFC4903C907F0A7FBFA4A03C2EF
:1035C000FA4AFB4BF84903C907F017FCF64A03C255
:1035D000F84AF94BF24903C907F0F6FC17D2F54A4D
:1035E000F64BEF4903C907F007FD10D2002213463E
:1035F000EB4903C907F000FD05D2EE49F048E84A5F
:10360000C2E9001003E0EB48EE49E54A03C2E64890
:10361000E3490CC803C907F0F0FB064609F016FAA7
:1036200004460022E84B07F076FBE84A03C200227A
:103630001346DB4903C907F0DFFC0FD20022134613
:10364000D94903C907F0D8FC08D2E14AE14BDF4968
:1036500003C907F0B9FADD4A03C243E0002213466A
:10366000CF4903C907F0C8FC0FD200221346CE4948
:1036700003C907F0A9FC08D2D74AD84BD34903C9DC
:1036800007F0A2FAD14A03C22CE000221346C44933
:1036900003C907F099FC0FD200221346C24903C99F
:1036A00007F092FC08D2CC4ACC4BC84903C907F0BA
:1036B0008BFAC64A03C215E000221346B84903C973
:1036C00007F082FC0ED200221346B74903C907F067
:1036D00093FC07D2BE4ABF4BBC4903C907F074FA3A
:1036E000BA4A03C2BE48B9490CC803C907F00DFB6A
:1036F000054607F01DFC041E01DB204600E0604289
:1037000064281EDAB648B1490CC803C907F0FDFAAF
:103710008246B44AB44B07F070FB06460022B34B16
:1037200007F06BFB8046B2480CC8404607F0F3FA3E
:103730000446B0480CC8204607F046FAAD4A03C21A
:1037400057E0A748A1490CC803C907F03DFC25D2A2
:103750009F4AA94B9D4903C907F036FACDE90201FA
:103760009F480CC8029807F0D0FA82469D4A9E4BAB
:1037700007F043FB064600229C4B07F03EFB8046C9
:103780009B480CC8404607F0C6FA044699480CC846
:10379000204607F019FA974A03C22AE08C4A964B52
:1037A0008F4903C907F010FA06460B468749D1E94D
:1037B000008181F000413246404607F005FA894A0F
:1037C000894BCDE9000107F018FB04460022874B26
:1037D00007F013FB824686480CC8504607F09BFA58
:1037E000CDE9020183480CC8029807F091FA814A9A
:1037F00003C2764903C97A4A03C280480068401C64
:103800007E4908607E487F490CC803C907F0DCF98F
:103810007C4A03C279480068012867DB00227A4BA2
:10382000784903C907F0E9FA04460D46774871491B
:103830000CC803C907F069FA064622462B4607F072
:10384000DCFA734A03C202F097F97248D0E900101B
:10385000714AC2E900106F48D0E902106F4AC2E90C
:10386000001000216E48674AC2E900100022664B32
:10387000644903C907F0C1FA04460D4663485D492F
:103880000CC803C907F041FA064622462B4607F04A
:10389000B4FA644A03C200225B4B5A4903C907F0D9
:1038A000ACFA04460D4660485E490CC803C907F0EF
:1038B0002CFA064622462B4607F09FFA5B4A03C2C3
:1038C0004C4903C9514A03C25648D0E90010564A30
:1038D000C2E900105048D0E90010554AC2E9001072
:1038E000002046490860474A10605060BDE8FF9FCD
:1038F0002DE9F04F91B082468B4600264D4FB046E1
:10390000DFF83491324949424C48CDE90E1000BFEE
:1039100001200D904A48D0E900104A4AC2E900103F
:1039200049480CC85046594607F0EFF9444A03C2CB
:103930004648D0E90010444AC2E9001010460CC8BD
:103940005046594607F0E1F904460D4620462946FF
:10395000DDE90E2307F050FB0CD300223C4BDDE9E0
:103960000E0107F0D8F922462B46CDE90A0107F0EF
:1039700043FB14D232480CC800204FF0804107F0BE
:10398000CAF922462B46CDE9000107F0C1F9CDE97D
:1039900002012C480CC8029807F016F95AE09FE083
:1039A000400000200000E03F480000204C378941E3
:1039B00060E5E83F7B14AE47E17A843FE17A84BF5B
:1039C000E17A743FE17A74BF00005940280000207A
:1039D000068195438BA26340894160E5D0737D40A9
:1039E000300000206E861BF0F9210940000069407C
:1039F00010010020C00000208BA28340E8030020BB
:103A0000B0000020F003002080842E41C800002078
:103A100048040020B0050020E0000020F80000204D
:103A20000088D340D0000020D8000020F000002003
:103A3000E800002000008940000089C07493683FBE
:103A4000000400201004002008040020880000204A
:103A50000000F0BFCDE90401FE480CC8049807F04F
:103A60005AF922462B46CDE90801FB4903C907F064
:103A700052F9CDE90401F9480CC82046294607F05F
:103A800044F9CDE90001F6480CC8009807F043F965
:103A9000CDE90201DDE9042307F096F8CDE906013E
:103AA000DDE9082307F090F8CDE90A01ED480CC8DC
:103AB0000A9807F089F8EB4A03C232463B46E949C7
:103AC00003C907F099FA01D2E648C0C042464B4606
:103AD000E44903C907F078FA02D2E248C0E9008954
:103AE000E148006818B90021DE4A11605160DF48E2
:103AF0000068401CDD49086008460068032801DBB7
:103B00000020086011B0BDE8F08F2DE9FF5F04468A
:103B10000D46002213462046294607F055FA2ED2BC
:103B20000022D34B2046294607F0F5F804460D46FF
:103B3000D04AD14B2046294607F0EDF88046894609
:103B4000CE4ACF4B2046294607F0E5F8824622466A
:103B50002B4607F0E0F842464B46CDE9000107F05E
:103B6000D4F80646C74AC84B07F02EF80022C04BCF
:103B7000CDE9020107F0CFF804B0BDE8F09FBD4ADF
:103B8000BD4B2046294607F0C6F8BC4ABC4BCDE9E0
:103B900002012046294607F0BEF8804622462B4601
:103BA00007F0B9F80646DDE9022307F0AEF88246D1
:103BB000B44AB54B07F008F8DEE710B5B348006823
:103BC000012804D1B2480CC8B2A007F051FFB44894
:103BD0000068012804D1B3480CC8B3A007F048FF1F
:103BE00010BDBCB000BF00BF00BF00213A913B91A7
:103BF00000203890399000BF00BF2E210EA806F09B
:103C0000A8FFAC4800680D9004F0CEFD4FF4A06012
:103C100004F0E6FE4FF4E13004F03EFEFFF72BFC2B
:103C200001F0F6F86423A44AA449A54804F07EFDF7
:103C3000A449098888B2002100F086FFA1490988BB
:103C400088B2002101F04FF89E480088401E81B2E2
:103C50004FF0804006F07AF99A480088401E81B201
:103C60004FF0804006F074F996480088401E81B2FB
:103C7000954806F06FF993480088401E81B292483B
:103C800006F06AF9642004F0CCFD4FF0FF308F4954
:103C90000860802001F081FE802004F058FC02F0D2
:103CA00003F803F04CFE04F039F804F077FAFFF75C
:103CB000F9FB774903C9864A03C200BFFCF7F3FF4B
:103CC00084A0FCF7B8FBF3E1FFF7ECFB4820FCF71E
:103CD000FDFF824A03C2FCF7E6FF04F0DEFC0C9015
:103CE00007F008F9824600227D4B07F014F8804661
:103CF00000227C4B07F081F806460022794B07F042
:103D00007CF804460022784B07F005F8774A03C296
:103D100001F0E9FE0C9007F0EDF806460022704B2A
:103D200006F0F9FF044600226E4B07F066F8824663
:103D300000226C4B07F061F8804600226A4B06F0C7
:103D4000EAFF6B4A03C201F0AAFEC0F1000A504626
:103D500007F0D0F880460022614B06F0DCFF00221D
:103D6000604BCDE90A0107F048F8064600225D4B9A
:103D700007F043F8044600225B4B06F0CCFF5D4A97
:103D800003C204F066FCC0F1000A504607F0B2F826
:103D90000022534BCDE90A0106F0BDFF8046002208
:103DA000504B07F02AF8064600224E4B07F025F844
:103DB000044600224C4B06F0AEFF4F4A03C2FCF70C
:103DC00059FB4E484E49CDE904104B4903C9CDE992
:103DD0000201484803C8CDE90001454843490CC8E1
:103DE00003C901F09CF90022464B474903C907F07B
:103DF00004F8804645480CC8404606F0E5FE0646F5
:103E0000434A444B06F0E0FE04460D46424843490F
:103E1000CDE90045CDE90210384839490CC803C93D
:103E200001F088FA3D4903C9FCF715FA3B4A03C281
:103E30003B483C490CC803C9FCF78AFE3A4A03C216
:103E400000213A4A116051600748006807F052F8B3
:103E500006466DE0380100203001002000040020FB
:103E6000280100204001002020000020F80300204D
:103E70000000F0BFFCA9F1D24D62503F52616C21AD
:103E8000C841D33F7E8CB96B09F9B03F38000020A0
:103E9000C0000020706F7320256C660A00000000CF
:103EA0003C0000201801002063757220256C660A12
:103EB0000000000094D00008C00400200438014035
:103EC0004400024004000020000400409001002053
:103ED000600100207374617274000000B000002063
:103EE0000000444000408F4000001440500000207B
:103EF00058000020600000206800002078000020AA
:103F00007000002000005940280000201000002010
:103F10001F85EB51B81EE93F80000020880000207B
:103F2000E0000020F8000020580100204801002097
:103F30000022FD4B06F061FF8046FC480CC840465D
:103F400006F0E3FE0446FCF741F9F94A03C2F849DA
:103F500003C9FCF7F8F9F64A03C2F64AF64BF749EB
:103F600003C906F0D8FE04460022F54B06F045FFD3
:103F700082468B46F348006806F0BCFF06460022E6
:103F8000E94B06F03AFF04460D46EF48006806F09C
:103F9000B1FF064632460B460020EC4906F02DFFE5
:103FA000804622462B4606F0B6FECDE90A0138A827
:103FB0003AA9CDE904ABCDE90610DC4803C8CDE948
:103FC0000201E34803C8CDE9000100200146DDE914
:103FD0000A23FCF715FE00221346DDE9380106F03E
:103FE000F3FF02D2002138913991D648006806F0DB
:103FF00081FF80460022CC4B06F0FFFE04460D46B2
:10400000D148006806F076FF804642460B46002005
:10401000CE4906F0F2FE064622462B4606F07BFE0F
:1040200082460B46CB4803C85246CDE90001DDE984
:104030003801FDF7C7FA4FF4005006F0E1FC28B351
:10404000BB4803C8CDE90A01DDE93801CDE9080123
:10405000C14803C8CDE90601C04803C8CDE9040141
:10406000B64803C8CDE90201BD4803C8CDE9000147
:10407000AE48AFF61C310CC81AA807F009FD4FF482
:10408000005006F0D1FC1AA8FCF7D5F9B548006835
:10409000401CB44908600846006806F02BFF04463F
:1040A0000022B14B06F0A8FF02D80020AD490860FD
:1040B0000AE610B50121880705F079FF90B1AB48F9
:1040C0000068401CA949086008460068B0F5FA6F0E
:1040D00004DBFFF772FD0020A44908600121880776
:1040E00005F076FF10BD10B501460A46002000E03D
:1040F000401C12F8014B002CFAD110BD2DE9F04FF5
:1041000099B000BF00BF2E210CA806F022FD9848F0
:1041100000680B904FF0000900200A90012195489B
:1041200005F045FF00287DD00121924805F050FFA1
:104130009148008800F400400028F4D08E480088A0
:10414000C0F30D0B202232210BA806F0FBFC5A46CF
:104150008A490BA806F0E4FC89A10BA806F012FD21
:104160008246042287A1504606F0FEFC00287DD13D
:1041700083A106F007FD82467348016883A007F01B
:1041800077FC7048016887A007F072FC8A480168D4
:104190008AA007F06DFC8D480CC88DA007F068FC64
:1041A0008F480CC88FA007F063FC6A480CC892A027
:1041B00007F05EFC944A954B664903C906F0ABFDD7
:1041C000CDE9040181480CC8049806F0FDFCCDE956
:1041D000060108F0C7FE074688465A48006806F000
:1041E00089FE3A464346CDE9080106F094FD0546AE
:1041F0002A460B4686A007F03BFC834A834B554971
:1042000003C906F088FDCDE9020175480CC8029883
:1042100006F07BFDCDE904016C480CC8049806F05B
:10422000D3FC00E0E8E2CDE9060108F09BFE05467C
:104230000E464448006806F05DFE07462A463346AF
:1042400006F069FD02460B46CDE9080174A007F0AF
:104250000FFC00224FF08043614903C906F05BFD6B
:1042600005460E46684A694B3A4900E0F2E003C948
:1042700006F051FD07462A46334606F046FDCDE9D5
:10428000000152480CC8009806F09EFCCDE90201DE
:1042900008F068FECDE906012A48006806F02AFE0B
:1042A000CDE90401DDE9062306F035FD02460B46A3
:1042B000CDE908015EA007F0DBFB0022604B484916
:1042C00003C906F028FD05460E464F4A4F4B2149CB
:1042D00003C906F020FD07462A46334606F015FDC1
:1042E000CDE9000139480CC8009806F06DFCCDE915
:1042F000020108F037FECDE906011248006806F019
:10430000F9FDCDE90401DDE9062306F004FD0246CE
:104310000B46CDE908014BA007F0AAFB0020164987
:10432000088019B0BDE8F08F0000594088000020D7
:10433000480100206E861BF0F9210940E0000020B2
:104340000000394020000020000000200000244030
:10435000800000202800002008010020000100202B
:10436000F80000202004002000405F4024040020CA
:1043700098D0000800040040A0040020A4080020F9
:104380002000000073797374656D0000766F6C74A3
:104390006167655F736F757263652069732025645B
:1043A0000A000000766F6C746167655F616D702054
:1043B00069732025640A00000400002050574D5FF7
:1043C000542069732025640A0000000010000020BA
:1043D000616E67656C20697320256C660A000000B9
:1043E0000800002070686173655F64696620697306
:1043F00020256C660A00000070686173652069738F
:1044000020256C660A0000009A9999999999B93FFC
:1044100070686173653120697320256C660A00003D
:1044200070686173653220697320256C660A00002C
:1044300070686173653320697320256C660A00001B
:104440000000084070686173653420697320256C32
:10445000660A00000422E9A1504606F085FB18BB5D
:10446000AFF2E401002006F08DFB82464FF0000918
:10447000002407E01AF80400303809EB890100EB4A
:104480004109641C5046FFF72EFEA042F2DC49466B
:10449000DBA007F0EDFADE48C0F800900020DD490F
:1044A000088019B0BDE8F08F0422DBA1504606F069
:1044B0005BFB08BBAFF23811002006F063FB8246BD
:1044C0004FF000099AF800002D280ED0002407E0D4
:1044D0001AF80400303809EB890100EB4109641C2B
:1044E0005046FFF700FEA042F2DCCC48C0F8009036
:1044F0000020C8490880D4E70422C9A1504606F02C
:1045000033FB48BBAFF28811002006F03BFB82462C
:104510004FF00009002407E01AF80400303809EBD6
:10452000890100EB4109641C5046FFF7DCFDA04205
:10453000F2DC484606F0DEFC0546BA4ABA4B06F005
:10454000EAFBBA4A03C2B9480CC8B9A007F090FA0E
:104550000020B0490880A4E70422B9A1504606F023
:1045600003FB48BBAFF2E811002006F00BFB8246CC
:104570004FF00009002407E01AF80400303809EB76
:10458000890100EB4109641C5046FFF7ACFDA042D5
:10459000F2DC484606F0AEFC0546A24AA24B06F005
:1045A000BAFBA84A03C2A7480CC8A7A007F060FA44
:1045B00000209849088074E70422A9A1504606F01B
:1045C000D3FA58BBAFF24821002006F0DBFA82464E
:1045D0004FF00009002407E01AF80400303809EB16
:1045E000890100EB4109641C5046FFF77CFDA042A5
:1045F000F2DC484606F07EFC9A4A03C2894A8A4B9E
:10460000984903C906F087FB05462A460B4696A043
:1046100007F02EFA00207F49088042E70422AFF21B
:104620004C71504606F0A0FA30B994A007F020FA79
:1046300000207849088034E7042291A1504606F012
:1046400093FA68B99048006840428F49086008466C
:1046500001688EA007F00CFA00206E49088020E760
:1046600004228DA1504606F07FFA68B98C48006894
:1046700040428B490860084601688AA007F0F8F9B3
:104680000020644908800CE704228CA1504606F003
:104690006BFA08BBAFF21831002006F073FA8246BD
:1046A0004FF00009002407E01AF80400303809EB45
:1046B000890100EB4109641C5046FFF714FDA0423C
:1046C000F2DC49467EA007F0D3F98348C0F8009099
:1046D000002050490880E4E6042280A1504606F0FC
:1046E00043FAB0B9AFF26831002006F04BFA8246C7
:1046F0004FF000090021504608F0AAFC784A03C296
:1047000077480CC877A007F0B3F90020414908802A
:10471000C7E6042279A1504606F026FAB0B9AFF2F6
:10472000A031002006F02EFA82464FF00009002149
:10473000504608F08DFC724A03C271480CC871A043
:1047400007F096F9002033490880AAE6042273A1F5
:10475000504606F009FAB0B9AFF2DC31002006F09D
:1047600011FA82464FF000090021504608F070FC13
:104770006B4A03C26A480CC86AA007F079F90020A6
:10478000244908808DE604226CA1504606F0ECF91D
:1047900060BBAFF21441002006F0F4F982464FF0FE
:1047A00000090021504608F053FC654A03C2AFF2ED
:1047B0003041002006F0E6F982460021504608F01C
:1047C00047FC604A03C2AFF24841002006F0DAF924
:1047D00082460021504608F03BFC5B4A03C227A0FA
:1047E00007F046F900200B4908805AE60A2004F039
:1047F00018F800200749088000BF52E6766F730062
:104800006368616E676520766F732025640A000017
:1048100000000020A0040020766F6C002000002023
:10482000616E67007B14AE47E17A843F1000002080
:104830006368616E676520616E6720256C660A009B
:1048400064696600080000206368616E6765207017
:10485000686173655F64696620256C660A00000004
:1048600070686100280000206368616E67652070D1
:10487000686173652025660A000000006F6B0A00FE
:1048800067657468616C00003800002068616C6CBA
:104890002069732025640A006765746375720000DF
:1048A0003C000020637572656E745F73746174659B
:1048B00020697320256420416E00000064656C004F
:1048C0006368616E67652064656C617974696D65A4
:1048D0002025640A000000001C000020636B7000AB
:1048E000280100206368616E6765206B705F6375E7
:1048F0007272656E7420256C660A0000636B690035
:10490000300100206368616E6765206B695F6375C5
:104910007272656E7420256C660A0000636B640019
:10492000380100206368616E6765206B645F6375A2
:104930007272656E7420256C660A00006E657400E4
:10494000780100208001002088010020704700BF0E
:10495000FEE700BFFEE700BFFEE700BFFEE77047CF
:1049600070477047704700000CB500200190009020
:104970006C48006840F480306A49086000BF6948AC
:10498000006800F4003000900198401C01900098ED
:1049900018B90198B0F5A06FF1D16248006800F431
:1049A000003010B10120009001E00020009000983C
:1049B000012843D15C48006840F010005A49086063
:1049C0000846006820F0030008600846006840F0D0
:1049D00002000860534840685249486008464068F1
:1049E00048600846406840F4806048600846406877
:1049F00020F47C1048600846406840F4E8104860A5
:104A00000846006840F08070086000BF45480068B4
:104A100000F000700028F9D04248406820F0030000
:104A2000404948600846406840F00200486000BFC6
:104A30003C48406800F00C000828F9D10CBD10B5C6
:104A4000FFF792FF10BD10B53648006840F0010036
:104A50003449086008464068344908403149486094
:104A600008460068324908402E4908600846006838
:104A700020F4802008600846406820F4FE0048606A
:104A80004FF41F008860FFF7DAFF4FF000602949FC
:104A9000086010BD10B5002100200022214B5B688A
:104AA00003F00C0121B1042906D0082928D107E020
:104AB000214B224C236027E01F4B204C236023E036
:104AC000184B5B6803F47010164B5B6803F480327C
:104AD000022303EB904022B9194B4343174C236048
:104AE0000DE0104B5B6803F4003323B1144B4343D8
:104AF000124C236003E0104B4343104C236003E04F
:104B00000D4B0E4C236000BF00BF064B5B68C3F328
:104B100003130C4CE15C094B1B68CB40074C236032
:104B200010BD000000100240002002400000FFF80D
:104B3000FFFFF6FE08ED00E000127A0030040020CE
:104B400000093D00340400207FB505460C460121D4
:104B5000022004F0DCFAADF80850ADF80440002063
:104B6000ADF80A00ADF8060001A9A44804F0FAFB6C
:104B700001221146A14804F06CFF1D208DF80000B1
:104B800000208DF8010003208DF8020001208DF82F
:104B90000300684603F029FF0121984804F03EFF16
:104BA0007FBD7FB505460C460121084604F0AFFAEB
:104BB000ADF80850ADF804400020ADF80A00ADF89B
:104BC000060001A94FF0804004F0CCFB0122114601
:104BD000900704F03EFF1C208DF8000000208DF8A7
:104BE000010002208DF8020001208DF803006846C4
:104BF00003F0FBFE0121880704F010FF7FBD7FB5A5
:104C000005460C460121C80204F081FAADF80850AF
:104C1000ADF804400020ADF80A00ADF806008DF8AC
:104C20000C0001A9764804F09DFB01224121744843
:104C300004F00FFF0121724805F0B6F919208DF834
:104C4000000000208DF8010002208DF802000120F4
:104C50008DF80300684603F0C8FE0121684804F09F
:104C6000DDFE7FBD30B589B005460C46012102202E
:104C700004F04DFA0121092004F03CFA01216148B9
:104C800004F04DF82020ADF8200018208DF8230006
:104C900003208DF8220008A95B4803F06FFFADF8F0
:104CA0001850ADF814400020ADF81A00ADF8160009
:104CB00005A9524804F056FB7020ADF8040001200D
:104CC000ADF806000020ADF80C0001A94B4804F037
:104CD000C8FB0821494804F0DAFF0121474804F0E5
:104CE0009DFE09B030BD30B589B005460C460121A6
:104CF000022004F00CFA0121092004F0FBF9012143
:104D0000404804F00CF80320ADF8200018208DF87E
:104D1000230003208DF8220008A93B4803F02EFF52
:104D2000ADF81850ADF814400020ADF81A00ADF8F9
:104D3000160005A9314804F015FB7020ADF80400F9
:104D40000120ADF806000020ADF80C0001A92B48A9
:104D500004F0D4FB0821294804F0A6FF01A9274844
:104D600004F017FC0821254804F0A7FF012123487F
:104D700004F054FE0121084604F0C9F90121042081
:104D800004F0B8F90320ADF8200018208DF82300B6
:104D900003208DF8220008A91C4803F0EFFEADF8AF
:104DA0001850ADF814400020ADF81A00ADF8160008
:104DB00005A94FF0804004F0D5FA7020ADF804004A
:104DC0000120ADF806000020ADF80C0001A94FF05D
:104DD000804004F004FB0821C80604F04FFF01A93D
:104DE0004FF0804004F03DFB0821C80604F04FFF5F
:104DF0000121880704F012FE09B030BD0004004014
:104E0000002C014000081A00000C0140000801407D
:104E100000B587B001214FF4047004F06BF94FF432
:104E2000004004F0CBF83F20ADF8040048208DF896
:104E3000070001A9354803F0A1FE354805F0D0FA76
:104E4000002002908DF80C008DF80D004FF46020CA
:104E500004900020059001208DF8180002A92C482C
:104E600005F0E5FA01212A4805F00DFB284805F078
:104E70002CFB00BF264805F02DFB0028FAD1244862
:104E800005F032FB00BF224805F033FB0028FAD1C1
:104E900007B000BD10B504460723012221461C4877
:104EA00005F05DFB01211A4805F02DFB00BF022132
:104EB000174805F099FC0028F9D0154805F0B6FB15
:104EC00010BD2DE9F04782460D464FF0000800273F
:104ED0000FE05046FFF7DEFF0446A0440FB9264618
:104EE000A146A64200D22646A14500D9A146781C7B
:104EF000C7B2AF42EDDBA8EB0600A0EB0901A81E8C
:104F0000B1FBF0F080B2BDE8F08700000010014076
:104F1000002401402DE9F04F95B080468946924625
:104F20009B46DDE92245FE4EFE4F49F60460139094
:104F3000139806F08BFD129032463B460020FA494A
:104F400005F0E9FE0022F94BCDE9060105F0E3FE8C
:104F500022462B46CDE9080105F036FECDE90A01CF
:104F600008F000F8CDE90C01DDE9202305F0D3FEBF
:104F700032463B46CDE910010020EB4905F0CBFE5F
:104F80000022BB07CDE9020105F0C5FE22462B46F3
:104F9000CDE9040105F018FECDE9060107F0E2FFB6
:104FA000CDE90801DDE91E2305F0B5FE32463B469A
:104FB000CDE90C010020DC4905F0ADFE22462B4670
:104FC000CDE9000105F000FECDE9020107F0CAFFBE
:104FD00052465B46CDE9040105F09DFE22462B4674
:104FE000CDE908010020014605F0EEFDCDE9020102
:104FF00007F0B8FF42464B46CDE9040105F08BFEB1
:10500000CDE90601DDE9082305F0DEFDCDE90A0161
:10501000DDE90C2305F0D8FDCDE90E01DDE9102313
:1050200005F0D2FD249A03C232463B460020BE4919
:1050300005F071FE0022BD4BCDE9060105F06BFEC7
:1050400022462B46CDE9080105F0BEFDCDE90A0157
:1050500007F03AFFCDE90C01DDE9202305F05BFE06
:1050600032463B46CDE910010020AF4905F053FE22
:105070000022BB07CDE9020105F04DFE22462B467A
:10508000CDE9040105F0A0FDCDE9060107F01CFF04
:10509000CDE90801DDE91E2305F03DFE32463B4621
:1050A000CDE90C010020A04905F035FE22462B4633
:1050B000CDE9000105F088FDCDE9020107F004FF0C
:1050C00052465B46CDE9040105F025FE22462B46FB
:1050D000CDE908010020014605F076FDCDE9020189
:1050E00007F0F2FE42464B46CDE9040105F013FEFF
:1050F000CDE90601DDE9082305F066FDCDE90A01E9
:10510000DDE90C2305F060FDCDE90E01DDE910239A
:1051100005F05AFD259A03C215B0BDE8F08F2DE9C0
:10512000F04F93B08046894692469B46804E7D4F15
:10513000BF1C00210C460D4632463B4600207A49F2
:1051400005F0E9FD0022794BCDE9060105F0E3FD0C
:1051500022462B46CDE9080105F036FDCDE90A01CE
:1051600007F000FFCDE90C01DDE91E2305F0D3FDBA
:1051700032463B46CDE9100100206B4905F0CBFDDE
:1051800000227307CDE9020105F0C5FD22462B463A
:10519000CDE9040105F018FDCDE9060107F0E2FEB6
:1051A000CDE90801DDE91C2305F0B5FD32463B469B
:1051B000CDE90C0100205C4905F0ADFD22462B46EF
:1051C000CDE9000105F000FDCDE9020107F0CAFEBE
:1051D00052465B46CDE9040105F09DFD22462B4673
:1051E000CDE908010020014605F0EEFCCDE9020101
:1051F00007F0B8FE42464B46CDE9040105F08BFDB1
:10520000CDE90601DDE9082305F0DEFCCDE90A0160
:10521000DDE90C2305F0D8FCCDE90E01DDE9102312
:1052200005F0D2FC209A03C232463B4600203E499C
:1052300005F071FD00223D4BCDE9060105F06BFD47
:1052400022462B46CDE9080105F0BEFCCDE90A0156
:1052500007F03AFECDE90C01DDE91E2305F05BFD08
:1052600032463B46CDE9100100202F4905F053FDA1
:1052700000227307CDE9020105F04DFD22462B46C1
:10528000CDE9040105F0A0FCCDE9060107F01CFE04
:10529000CDE90801DDE91C2305F03DFD32463B4622
:1052A000CDE90C010020204905F035FD22462B46B2
:1052B000CDE9000105F088FCCDE9020107F004FE0C
:1052C00052465B46CDE9040105F025FD22462B46FA
:1052D000CDE908010020014605F076FCCDE9020188
:1052E00007F0F2FD42464B46CDE9040105F013FDFF
:1052F000CDE90601DDE9082305F066FCCDE90A01E8
:10530000DDE90C2305F060FCCDE90E01DDE9102399
:1053100005F05AFC219A03C213B0BDE8F08F0000DB
:105320006E861BF0F92109400000E83F00000840AC
:105330004AD8124D2DE9FF5F06460F469046994622
:10534000DDE90E452046294607F0BEFD824642466D
:105350004B4605F0E0FCCDE902012046294607F066
:1053600001FE824632463B4605F0D5FCCDE9000100
:10537000DDE9022305F0C9FC109A03C22046294644
:1053800007F0F0FD824642464B4605F0C4FCCDE9ED
:1053900002012046294607F097FD824632463B46E9
:1053A00005F0B9FCCDE90001DDE9022305F00CFCB4
:1053B000119A03C2BDE8FF9F2DE9F04F87B0044664
:1053C0000D4690469946DDE910673046394607F0AC
:1053D0007BFD824642464B4605F09DFCCDE904012B
:1053E0003046394607F0BEFD824622462B4605F080
:1053F00092FCCDE90201DDE9042305F0E5FB129AF8
:1054000003C23046394607F0ADFD824642464B4660
:1054100005F081FCCDE904013046394607F054FD22
:10542000824685F0004052460B46CDE900402046BA
:10543000019905F070FCCDE90201DDE9042305F0D6
:10544000C3FB139A03C207B0BDE8F08F2DE9F04FFC
:1054500089B006460F4690469946584C584D002054
:10546000014607F031FD824642464B4605F053FCAB
:10547000CDE906010020014607F074FD8246324660
:105480003B4605F048FCCDE90401DDE9062305F0C3
:105490009BFB129A03C222462B460020494905F085
:1054A0003AFCCDE9020107F00FFD824642464B4629
:1054B00005F031FC22462B46CDE90601002041498A
:1054C00005F029FC824607F04DFD32463B46CDE90A
:1054D000020105F020FCCDE90401DDE9062305F019
:1054E00073FB139A03C222462B460020354905F070
:1054F00012FC82460022630705F00DFCCDE9000195
:1055000007F0E2FC42464B46CDE9020105F003FC00
:1055100022462B46CDE9060100202A4905F0FBFB77
:1055200082460022630705F0F6FBCDE9000107F093
:1055300019FD32463B46CDE9020105F0ECFBCDE911
:105540000401DDE9062305F03FFB149A03C222465D
:105550002B4600201B4905F0DEFB00221A4BCDE94B
:10556000000105F0D8FBCDE9020107F0ADFC824651
:1055700042464B4605F0CFFB22462B46CDE90601BD
:105580000020104905F0C7FB824600220E4B05F0B3
:10559000C2FBCDE9000107F0E5FC32463B46CDE910
:1055A000020105F0B8FBCDE90401DDE9062305F0B1
:1055B0000BFB159A03C209B0BDE8F08F4AD8124D13
:1055C000FB2109400000E83F0000084000BF411EE9
:1055D00089B2081EFBD1704708B50121080203F00B
:1055E00089FD4FF48050ADF8000003208DF80200D3
:1055F00010208DF803006946F94803F0BFFA4FF414
:105600008051F74803F067FB08BD08B50121080287
:1056100003F070FD4FF40060ADF8000003208DF83A
:10562000020010208DF803006946ED4803F0A6FA49
:105630004FF40061EA4803F04EFB08BD08B50121B4
:10564000080203F057FD4FF40060ADF8000003209E
:105650008DF8020048208DF803006946E04803F009
:105660008DFA08BD014601EBC1024FF0E0235A61FB
:1056700000229A611A46126942F001021A6100BFC3
:105680004FF0E022106900F001021AB100F48032FC
:10569000002AF5D04FF0E022126922F001024FF00B
:1056A000E0231A6100229A61704710B5FFF794FF5A
:1056B000FFF7ABFF4FF40061C94803F00CFB4FF458
:1056C0008051C74803F007FB052003F0AAF810BD7E
:1056D00010B54FF40061C24803F0FDFA4FF4805159
:1056E000BF4803F0F8FA0520FFF770FF4FF40061A0
:1056F000BB4803F0F2FA0520FFF768FF4FF4805132
:10570000B74803F0EAFA0520FFF760FF10BD10B5B7
:105710004FF40061B24803F0E0FA0520FFF756FFAE
:105720004FF48051AE4803F0D6FA0520FFF74EFF44
:105730004FF40061AA4803F0CEFA0520FFF746FFB8
:1057400010BD10B54FF40061A54803F0C6FA05205E
:10575000FFF73CFF4FF48051A14803F0BCFA05204D
:10576000FFF734FF4FF480519D4803F0B6FA05204F
:10577000FFF72CFF4FF40061994803F0ACFA10BD1D
:1057800010B54FF40061964803F0A5FA0520FFF725
:105790001DFF4FF48051924803F09DFA0520FFF75A
:1057A00015FF4FF480518E4803F097FA0520FFF75C
:1057B0000DFF4FF400618A4803F08FFA10BD10B559
:1057C00000244FF40061864803F085FAFFF736FFA6
:1057D0000520FFF7FBFE4FF48051814803F07BFA70
:1057E0000520FFF7F3FE07E0601CC4B2FA2C03DDCE
:1057F000FFF78DFF012010BD4FF40061784803F0E2
:1058000050FA0028F0D14FF48051754803F065FA42
:10581000FFF7FBFE0020EEE770B5044600254FF4CD
:1058200080516F4803F059FA00BF21E004F0800076
:1058300028B14FF400616A4803F04DFA04E04FF4D8
:105840000061674803F049FA6006040E4FF4805186
:10585000634803F040FA0520FFF7B8FE4FF480518B
:105860005F4803F03AFA0520FFF7B0FE681CC5B2A6
:10587000082DDBDB70BD70B505460024FFF7DEFEAA
:1058800000261BE04FF48051554803F024FA052010
:10589000FFF79CFE6006040E4FF40061504803F0D1
:1058A00000FA08B144F001044FF480514C4803F071
:1058B00014FA0520FFF78AFE701CC6B2082EE1DB41
:1058C000FFF7A3FE15B9FFF75BFF01E0FFF739FF14
:1058D000204670BD2DE9F04106460D4614460027CE
:1058E000FFF7F6FE3046FFF797FFFFF768FF284601
:1058F000FFF792FFFFF763FF27123846FFF78CFF91
:10590000FFF75DFFE7B23846FFF786FFFFF757FF67
:10591000FFF7FDFEBDE8F08170B505460C46FFF7C8
:10592000D7FE2846FFF778FFFFF749FF2046FFF72D
:1059300073FFFFF744FFFFF7EAFE70BD70B5054641
:105940000024FFF7C5FE691CC8B2FFF765FFFFF72B
:1059500036FF0120FFF78FFF04464FF6FF7000EA85
:1059600004240020FFF787FF0443FFF7D0FE204602
:1059700070BD70B5044600250AE0322002F051FFE8
:10598000FF212046FFF7C8FF2046FFF7D7FF054657
:1059900043F220208542F0D170BD10B50446FFF7D8
:1059A00084FE4FF4004200212046FFF793FF0A20B7
:1059B00002F037FF47F2271200212046FFF78AFF47
:1059C0002046FFF7D6FF10BD70B506460D460024F1
:1059D000012D07D0022D0AD0032D12D10CE00000BA
:1059E0000020014002213046FFF796FF0AE0042123
:1059F0003046FFF791FF05E006213046FFF78CFFA8
:105A000000E000BF00BF3046FFF798FF044604F4F3
:105A1000004008B1601EC443A0B270BD70B5064618
:105A20000D460024012D04D0022D07D0032D0FD1E7
:105A300009E001213046FFF76FFF0AE003213046FD
:105A4000FFF76AFF05E005213046FFF765FF00E03C
:105A500000BF00BF3046FFF771FF044604F400406A
:105A600020B1601EC443A0B2404270BDA0B2FCE7AA
:105A7000024610680B68C01A704770B505260024EE
:105A8000002500BF05E001218020FFF7C7FF054486
:105A9000641C052CF7DB052095FBF0F070BD30B5DC
:105AA0008BB00525002407E001218020FFF7B6FF19
:105AB00006A941F82400641C052CF5DB002406E04F
:105AC00006A850F8240001A941F82400641C052C04
:105AD000F6DBAFF263030422052101A804F0D2FF34
